{
  "contractName": "Claimable",
  "abi": [
    {
      "anonymous": false,
      "inputs": [
        {
          "indexed": true,
          "internalType": "address",
          "name": "claimer",
          "type": "address"
        }
      ],
      "name": "ClaimerAdded",
      "type": "event"
    },
    {
      "anonymous": false,
      "inputs": [
        {
          "indexed": true,
          "internalType": "address",
          "name": "claimer",
          "type": "address"
        }
      ],
      "name": "ClaimerRemoved",
      "type": "event"
    },
    {
      "anonymous": false,
      "inputs": [
        {
          "indexed": false,
          "internalType": "uint256",
          "name": "oldExpiration",
          "type": "uint256"
        },
        {
          "indexed": false,
          "internalType": "uint256",
          "name": "newExpiration",
          "type": "uint256"
        }
      ],
      "name": "ExpirationUpdated",
      "type": "event"
    },
    {
      "anonymous": false,
      "inputs": [
        {
          "indexed": true,
          "internalType": "address",
          "name": "previousOwner",
          "type": "address"
        },
        {
          "indexed": true,
          "internalType": "address",
          "name": "newOwner",
          "type": "address"
        }
      ],
      "name": "OwnershipTransferred",
      "type": "event"
    },
    {
      "constant": true,
      "inputs": [],
      "name": "isOwner",
      "outputs": [
        {
          "internalType": "bool",
          "name": "",
          "type": "bool"
        }
      ],
      "payable": false,
      "stateMutability": "view",
      "type": "function"
    },
    {
      "constant": true,
      "inputs": [],
      "name": "owner",
      "outputs": [
        {
          "internalType": "address",
          "name": "",
          "type": "address"
        }
      ],
      "payable": false,
      "stateMutability": "view",
      "type": "function"
    },
    {
      "constant": false,
      "inputs": [],
      "name": "renounceOwnership",
      "outputs": [],
      "payable": false,
      "stateMutability": "nonpayable",
      "type": "function"
    },
    {
      "constant": false,
      "inputs": [
        {
          "internalType": "address",
          "name": "newOwner",
          "type": "address"
        }
      ],
      "name": "transferOwnership",
      "outputs": [],
      "payable": false,
      "stateMutability": "nonpayable",
      "type": "function"
    },
    {
      "constant": false,
      "inputs": [
        {
          "internalType": "address",
          "name": "_claimer",
          "type": "address"
        }
      ],
      "name": "addClaimer",
      "outputs": [],
      "payable": false,
      "stateMutability": "nonpayable",
      "type": "function"
    },
    {
      "constant": false,
      "inputs": [
        {
          "internalType": "address",
          "name": "_claimer",
          "type": "address"
        }
      ],
      "name": "removeClaimer",
      "outputs": [],
      "payable": false,
      "stateMutability": "nonpayable",
      "type": "function"
    },
    {
      "constant": true,
      "inputs": [
        {
          "internalType": "address",
          "name": "_claimer",
          "type": "address"
        }
      ],
      "name": "isClaimer",
      "outputs": [
        {
          "internalType": "bool",
          "name": "",
          "type": "bool"
        }
      ],
      "payable": false,
      "stateMutability": "view",
      "type": "function"
    },
    {
      "constant": false,
      "inputs": [
        {
          "internalType": "uint256",
          "name": "_expirationTime",
          "type": "uint256"
        }
      ],
      "name": "setExpirationTime",
      "outputs": [],
      "payable": false,
      "stateMutability": "nonpayable",
      "type": "function"
    },
    {
      "constant": true,
      "inputs": [],
      "name": "getExpirationTime",
      "outputs": [
        {
          "internalType": "uint256",
          "name": "",
          "type": "uint256"
        }
      ],
      "payable": false,
      "stateMutability": "view",
      "type": "function"
    },
    {
      "constant": false,
      "inputs": [],
      "name": "claim",
      "outputs": [],
      "payable": false,
      "stateMutability": "nonpayable",
      "type": "function"
    },
    {
      "constant": true,
      "inputs": [],
      "name": "isClaimable",
      "outputs": [
        {
          "internalType": "bool",
          "name": "",
          "type": "bool"
        },
        {
          "internalType": "bool",
          "name": "",
          "type": "bool"
        },
        {
          "internalType": "bool",
          "name": "",
          "type": "bool"
        }
      ],
      "payable": false,
      "stateMutability": "view",
      "type": "function"
    },
    {
      "constant": true,
      "inputs": [],
      "name": "read",
      "outputs": [
        {
          "internalType": "address",
          "name": "",
          "type": "address"
        },
        {
          "internalType": "uint256",
          "name": "",
          "type": "uint256"
        },
        {
          "internalType": "bool",
          "name": "",
          "type": "bool"
        }
      ],
      "payable": false,
      "stateMutability": "view",
      "type": "function"
    },
    {
      "constant": true,
      "inputs": [],
      "name": "debugnow",
      "outputs": [
        {
          "internalType": "uint256",
          "name": "",
          "type": "uint256"
        }
      ],
      "payable": false,
      "stateMutability": "view",
      "type": "function"
    }
  ],
  "bytecode": "0x6080604052336000806101000a81548173ffffffffffffffffffffffffffffffffffffffff021916908373ffffffffffffffffffffffffffffffffffffffff1602179055506000809054906101000a900473ffffffffffffffffffffffffffffffffffffffff1673ffffffffffffffffffffffffffffffffffffffff16600073ffffffffffffffffffffffffffffffffffffffff167f8be0079c531659141344cd1fd0a4f28419497f9722a3daafe3b4186f6b6457e060405160405180910390a3610970806100cf6000396000f3fe608060405234801561001057600080fd5b50600436106100cf5760003560e01c80638da5cb5b1161008c578063e1aa071c11610066578063e1aa071c146102b6578063e23a845a146102d4578063f0490b8a146102f2578063f2fde38b14610336576100cf565b80638da5cb5b1461021c5780638f32d59b14610266578063c0cc365d14610288576100cf565b806310a8aecd146100d45780632ea66401146101305780634e71d92d1461017457806357de26a41461017e578063715018a6146101da57806374478bb3146101e4575b600080fd5b610116600480360360208110156100ea57600080fd5b81019080803573ffffffffffffffffffffffffffffffffffffffff16906020019092919050505061037a565b604051808215151515815260200191505060405180910390f35b6101726004803603602081101561014657600080fd5b81019080803573ffffffffffffffffffffffffffffffffffffffff1690602001909291905050506103d0565b005b61017c6104d5565b005b610186610512565b604051808473ffffffffffffffffffffffffffffffffffffffff1673ffffffffffffffffffffffffffffffffffffffff16815260200183815260200182151515158152602001935050505060405180910390f35b6101e2610536565b005b6101ec610606565b60405180841515151581526020018315151515815260200182151515158152602001935050505060405180910390f35b61022461062d565b604051808273ffffffffffffffffffffffffffffffffffffffff1673ffffffffffffffffffffffffffffffffffffffff16815260200191505060405180910390f35b61026e610656565b604051808215151515815260200191505060405180910390f35b6102b46004803603602081101561029e57600080fd5b81019080803590602001909291905050506106ad565b005b6102be61070f565b6040518082815260200191505060405180910390f35b6102dc610717565b6040518082815260200191505060405180910390f35b6103346004803603602081101561030857600080fd5b81019080803573ffffffffffffffffffffffffffffffffffffffff169060200190929190505050610721565b005b6103786004803603602081101561034c57600080fd5b81019080803573ffffffffffffffffffffffffffffffffffffffff169060200190929190505050610826565b005b6000600160008373ffffffffffffffffffffffffffffffffffffffff1673ffffffffffffffffffffffffffffffffffffffff16815260200190815260200160002060009054906101000a900460ff169050919050565b6103d8610656565b6103e157600080fd5b600160008273ffffffffffffffffffffffffffffffffffffffff1673ffffffffffffffffffffffffffffffffffffffff16815260200190815260200160002060009054906101000a900460ff161561043857600080fd5b60018060008373ffffffffffffffffffffffffffffffffffffffff1673ffffffffffffffffffffffffffffffffffffffff16815260200190815260200160002060006101000a81548160ff0219169083151502179055508073ffffffffffffffffffffffffffffffffffffffff167fff9a8f4e0a39755c20c899b46171e470382709479fce2aa1e388f95edfe0173960405160405180910390a250565b6104de3361037a565b6104e757600080fd5b60025442116104f557600080fd5b6104fd610656565b1561050757600080fd5b61051033610843565b565b600080600061051f61062d565b60025461052b3361037a565b925092509250909192565b61053e610656565b61054757600080fd5b600073ffffffffffffffffffffffffffffffffffffffff166000809054906101000a900473ffffffffffffffffffffffffffffffffffffffff1673ffffffffffffffffffffffffffffffffffffffff167f8be0079c531659141344cd1fd0a4f28419497f9722a3daafe3b4186f6b6457e060405160405180910390a360008060006101000a81548173ffffffffffffffffffffffffffffffffffffffff021916908373ffffffffffffffffffffffffffffffffffffffff160217905550565b60008060006106143361037a565b6002544211610621610656565b15925092509250909192565b60008060009054906101000a900473ffffffffffffffffffffffffffffffffffffffff16905090565b60008060009054906101000a900473ffffffffffffffffffffffffffffffffffffffff1673ffffffffffffffffffffffffffffffffffffffff163373ffffffffffffffffffffffffffffffffffffffff1614905090565b6106b5610656565b6106be57600080fd5b60006002549050816002819055507f48bd2ad49200e0ca36b95736b1b720e3a4db1eb87715905a0242d11e90fcf1768183604051808381526020018281526020019250505060405180910390a15050565b600042905090565b6000600254905090565b610729610656565b61073257600080fd5b600160008273ffffffffffffffffffffffffffffffffffffffff1673ffffffffffffffffffffffffffffffffffffffff16815260200190815260200160002060009054906101000a900460ff1661078857600080fd5b6000600160008373ffffffffffffffffffffffffffffffffffffffff1673ffffffffffffffffffffffffffffffffffffffff16815260200190815260200160002060006101000a81548160ff0219169083151502179055508073ffffffffffffffffffffffffffffffffffffffff167f30acaa541089592567cd4ce36437c68778a43e66dc1a9e7031e4496faf45932560405160405180910390a250565b61082e610656565b61083757600080fd5b61084081610843565b50565b600073ffffffffffffffffffffffffffffffffffffffff168173ffffffffffffffffffffffffffffffffffffffff16141561087d57600080fd5b8073ffffffffffffffffffffffffffffffffffffffff166000809054906101000a900473ffffffffffffffffffffffffffffffffffffffff1673ffffffffffffffffffffffffffffffffffffffff167f8be0079c531659141344cd1fd0a4f28419497f9722a3daafe3b4186f6b6457e060405160405180910390a3806000806101000a81548173ffffffffffffffffffffffffffffffffffffffff021916908373ffffffffffffffffffffffffffffffffffffffff1602179055505056fea265627a7a72315820feb5be4bb3261ea99e6da7224b1a276985f6b1e2695f33b2d36b1898d4e1cae064736f6c63430005100032",
  "source": "pragma solidity >=0.5.16;\n\nimport \"./Ownable.sol\";\n\n/**\n* @title Claimable\n* @dev The claimable contract allows the owner to specify addresses who can claim the ownership of this contract,  \n* after a specified time.\n* This is a safe-guard should the owner ever lose access to their keys. \n*\n* A claimable contract with an expiration date defined, but no claimers specified, can be claimed by anyone once the time is expired.\n* The owner can change this time periodically, to ensure ownership of the contract while the key is safe.\n*/\ncontract Claimable is Ownable {\n\n    mapping (address => bool) private claimers; // addresses who are allowed to claim this contract\n    uint private expirationTime; // stores time of last owner action + maxInactiveTime\n\n    /**\n     * Throw event to inform listeners of what is happening\n     */\n    event ClaimerAdded ( address indexed claimer );\n    event ClaimerRemoved ( address indexed claimer );\n    event ExpirationUpdated ( uint oldExpiration, uint newExpiration );\n\n    /**\n     * @notice Adds a new claimer to the contract\n     * @param _claimer address of the claimer to be added\n     */\n    function addClaimer(address _claimer) public onlyOwner {\n        require(! claimers[_claimer] ); // ensure claimer has not been added already \n\n        claimers[_claimer] = true;\n        emit ClaimerAdded (_claimer);\n    }\n\n    /**\n     * @notice Removes a claimer from the contract\n     * @param _claimer address of the claimer to be removed\n     */\n    function removeClaimer(address _claimer) public onlyOwner {\n        require(claimers[_claimer] ); // ensure address is claimer\n\n        claimers[_claimer] = false;\n        emit ClaimerRemoved(_claimer);\n    }\n\n    /**\n     * @notice returns true if the caller has been added as claimer on this contract\n     * @param _claimer address to verify\n     * @return true if the caller has been added as claimer, false, otherwise\n     */\n    function isClaimer(address _claimer) public view returns (bool) {\n        return claimers[_claimer];\n    }\n\n    /**\n    * @notice allows the owner to set a new expiration time to extend the ownership of this contract\n    * @param _expirationTime the new expiration time for this contract\n    */\n    function setExpirationTime(uint _expirationTime) public onlyOwner {\n        uint oldExpiration = expirationTime;\n\n        expirationTime = _expirationTime;\n\n        emit ExpirationUpdated(oldExpiration, _expirationTime);\n    }\n\n    /**\n     * @notice Gets the current expiration time set in this contract\n     * @return uint with the expiration time\n     */\n    function getExpirationTime() public view returns (uint) {\n        return expirationTime;\n    }\n\n    /**\n     * @notice Claim ownership of the contract, once the max inactive time is reached. \n     * Only addresses in claimers can claim, unless the array is empty.\n     */\n    function claim() public {\n        require(isClaimer(msg.sender));\n        require(now > expirationTime);\n        require(!isOwner());\n\n        _transferOwnership(msg.sender);      \n    }\n    \n    /**\n     * @notice Checks if the expiration date is passed and contract can be claimed.\n     * @dev The contract is claimable when the 3 results are true.\n     * @return bool: is a claimer, bool: is expired, bool: is not owner\n     */\n    function isClaimable() public view returns (bool, bool, bool) {\n        return (isClaimer(msg.sender), now > expirationTime, !isOwner());\n    }\n\n    /**\n    * @notice returns the owner of this contract, the expiration date and if the caller is one of the claimers\n    * @return (address: owner of this contract, uint: the expiration date, bool: is caller a claimers?)\n    */\n    function read() public view returns (address, uint, bool) {\n        return (owner(), expirationTime, isClaimer(msg.sender));\n    }\n\n    function debugnow() public view returns (uint) {\n        return now;\n    }\n}",
  "sourcePath": "/home/fernandotimm/Projects/dapps/solidity-claimable/contracts/Claimable.sol",
  "compiler": {
    "name": "solc",
    "version": "0.5.16+commit.9c3226ce.Emscripten.clang"
  },
  "schemaVersion": "3.4.1",
  "updatedAt": "2021-06-14T19:45:12.968Z",
  "networkType": "ethereum",
  "devdoc": {
    "details": "The claimable contract allows the owner to specify addresses who can claim the ownership of this contract,   after a specified time. This is a safe-guard should the owner ever lose access to their keys.  * A claimable contract with an expiration date defined, but no claimers specified, can be claimed by anyone once the time is expired. The owner can change this time periodically, to ensure ownership of the contract while the key is safe.",
    "methods": {
      "addClaimer(address)": {
        "params": {
          "_claimer": "address of the claimer to be added"
        }
      },
      "getExpirationTime()": {
        "return": "uint with the expiration time"
      },
      "isClaimable()": {
        "details": "The contract is claimable when the 3 results are true.",
        "return": "bool: is a claimer, bool: is expired, bool: is not owner"
      },
      "isClaimer(address)": {
        "params": {
          "_claimer": "address to verify"
        },
        "return": "true if the caller has been added as claimer, false, otherwise"
      },
      "isOwner()": {
        "return": "true if `msg.sender` is the owner of the contract."
      },
      "owner()": {
        "return": "the address of the owner."
      },
      "read()": {
        "return": "(address: owner of this contract, uint: the expiration date, bool: is caller a claimers?)"
      },
      "removeClaimer(address)": {
        "params": {
          "_claimer": "address of the claimer to be removed"
        }
      },
      "renounceOwnership()": {
        "details": "Allows the current owner to relinquish control of the contract."
      },
      "setExpirationTime(uint256)": {
        "params": {
          "_expirationTime": "the new expiration time for this contract"
        }
      },
      "transferOwnership(address)": {
        "details": "Allows the current owner to transfer control of the contract to a newOwner.",
        "params": {
          "newOwner": "The address to transfer ownership to."
        }
      }
    },
    "title": "Claimable"
  },
  "userdoc": {
    "methods": {
      "addClaimer(address)": {
        "notice": "Adds a new claimer to the contract"
      },
      "claim()": {
        "notice": "Claim ownership of the contract, once the max inactive time is reached.  Only addresses in claimers can claim, unless the array is empty."
      },
      "getExpirationTime()": {
        "notice": "Gets the current expiration time set in this contract"
      },
      "isClaimable()": {
        "notice": "Checks if the expiration date is passed and contract can be claimed."
      },
      "isClaimer(address)": {
        "notice": "returns true if the caller has been added as claimer on this contract"
      },
      "read()": {
        "notice": "returns the owner of this contract, the expiration date and if the caller is one of the claimers"
      },
      "removeClaimer(address)": {
        "notice": "Removes a claimer from the contract"
      },
      "renounceOwnership()": {
        "notice": "Renouncing to ownership will leave the contract without an owner. It will not be possible to call the functions with the `onlyOwner` modifier anymore."
      },
      "setExpirationTime(uint256)": {
        "notice": "allows the owner to set a new expiration time to extend the ownership of this contract"
      }
    }
  }
}